{
  "transactions": [
    {
      "hash": "0x0e5d5fa46a5aaf97cab32387a26fa9c8d76cef8d00116baca5ace78784f7eead",
      "transactionType": "CALL",
      "contractName": null,
      "contractAddress": "0xdbfd526e99e458ea640b524cbc671650be29afd1",
      "function": "createLBPair(address,address,uint24,uint16)",
      "arguments": [
        "0x58AD50724a983240D69072DE9c554ff1E12fedd7",
        "0x4Fcbcfab3109809b0BCcCB42c82cC4E281e71C12",
        "8388608",
        "15"
      ],
      "transaction": {
        "from": "0x05bb785675f2c43794cd0cf69fae4ff55609b783",
        "to": "0xdbfd526e99e458ea640b524cbc671650be29afd1",
        "gas": "0x5f93c",
        "value": "0x0",
        "input": "0x659ac74b00000000000000000000000058ad50724a983240d69072de9c554ff1e12fedd70000000000000000000000004fcbcfab3109809b0bcccb42c82cc4e281e71c120000000000000000000000000000000000000000000000000000000000800000000000000000000000000000000000000000000000000000000000000000000f",
        "nonce": "0x5f",
        "chainId": "0x72"
      },
      "additionalContracts": [
        {
          "transactionType": "CREATE2",
          "contractName": null,
          "address": "0x57ab117167833d1498badd8952d2faa4a25db572",
          "initCode": "0x6100613d81600a3d39f3363d3d373d3d3d3d61002c806035363936013d73cd0adc764386fa0b431625e73db83fb677f686515af43d3d93803e603357fd5bf358ad50724a983240d69072de9c554ff1e12fedd74fcbcfab3109809b0bcccb42c82cc4e281e71c12000f002c"
        }
      ],
      "isFixedGasLimit": false
    }
  ],
  "receipts": [
    {
      "status": "0x1",
      "cumulativeGasUsed": "0x415a2",
      "logs": [
        {
          "address": "0xdbfd526e99e458ea640b524cbc671650be29afd1",
          "topics": [
            "0x2c8d104b27c6b7f4492017a6f5cf3803043688934ebcaa6a03540beeaf976aff",
            "0x00000000000000000000000058ad50724a983240d69072de9c554ff1e12fedd7",
            "0x0000000000000000000000004fcbcfab3109809b0bcccb42c82cc4e281e71c12",
            "0x000000000000000000000000000000000000000000000000000000000000000f"
          ],
          "data": "0x00000000000000000000000057ab117167833d1498badd8952d2faa4a25db5720000000000000000000000000000000000000000000000000000000000000007",
          "blockHash": "0xbf76891efe19b9755ea66dafa0f9c33b90e0906eea370151e68272ffb43642ef",
          "blockNumber": "0x17e9561",
          "transactionHash": "0x0e5d5fa46a5aaf97cab32387a26fa9c8d76cef8d00116baca5ace78784f7eead",
          "transactionIndex": "0x0",
          "logIndex": "0x0",
          "removed": false
        },
        {
          "address": "0x57ab117167833d1498badd8952d2faa4a25db572",
          "topics": [
            "0xd09e5ddc721ff14c5c1e66a305cbba1fd70b82c5232bc391aad6f55e62e4b046",
            "0x000000000000000000000000dbfd526e99e458ea640b524cbc671650be29afd1"
          ],
          "data": "0x0000000000000000000000000000000000000000000000000000000000002710000000000000000000000000000000000000000000000000000000000000001e00000000000000000000000000000000000000000000000000000000000002580000000000000000000000000000000000000000000000000000000000001388000000000000000000000000000000000000000000000000000000000000753000000000000000000000000000000000000000000000000000000000000000000000000000000000000000000000000000000000000000000000000000055730",
          "blockHash": "0xbf76891efe19b9755ea66dafa0f9c33b90e0906eea370151e68272ffb43642ef",
          "blockNumber": "0x17e9561",
          "transactionHash": "0x0e5d5fa46a5aaf97cab32387a26fa9c8d76cef8d00116baca5ace78784f7eead",
          "transactionIndex": "0x0",
          "logIndex": "0x1",
          "removed": false
        },
        {
          "address": "0x57ab117167833d1498badd8952d2faa4a25db572",
          "topics": [
            "0xc7f505b2f371ae2175ee4913f4499e1f2633a7b5936321eed1cdaeb6115181d2"
          ],
          "data": "0x0000000000000000000000000000000000000000000000000000000000000001",
          "blockHash": "0xbf76891efe19b9755ea66dafa0f9c33b90e0906eea370151e68272ffb43642ef",
          "blockNumber": "0x17e9561",
          "transactionHash": "0x0e5d5fa46a5aaf97cab32387a26fa9c8d76cef8d00116baca5ace78784f7eead",
          "transactionIndex": "0x0",
          "logIndex": "0x2",
          "removed": false
        },
        {
          "address": "0x1000000000000000000000000000000000000002",
          "topics": [
            "0xe7aa66356adbd5e839ef210626f6d8f6f72109c17fadf4c4f9ca82b315ae79b4"
          ],
          "data": "0x000000000000000000000000c738fdcde9cd2fbd72618d36ed71008b8d001ba4000000000000000000000000000000000000000000000000000000000000421a",
          "blockHash": "0xbf76891efe19b9755ea66dafa0f9c33b90e0906eea370151e68272ffb43642ef",
          "blockNumber": "0x17e9561",
          "transactionHash": "0x0e5d5fa46a5aaf97cab32387a26fa9c8d76cef8d00116baca5ace78784f7eead",
          "transactionIndex": "0x0",
          "logIndex": "0x3",
          "removed": false
        },
        {
          "address": "0x1000000000000000000000000000000000000002",
          "topics": [
            "0xe7aa66356adbd5e839ef210626f6d8f6f72109c17fadf4c4f9ca82b315ae79b4"
          ],
          "data": "0x000000000000000000000000d2a1bb23eb350814a30dd6f9de78bb2c8fdd9f1d0000000000000000000000000000000000000000000000000000000000003b68",
          "blockHash": "0xbf76891efe19b9755ea66dafa0f9c33b90e0906eea370151e68272ffb43642ef",
          "blockNumber": "0x17e9561",
          "transactionHash": "0x0e5d5fa46a5aaf97cab32387a26fa9c8d76cef8d00116baca5ace78784f7eead",
          "transactionIndex": "0x0",
          "logIndex": "0x4",
          "removed": false
        },
        {
          "address": "0x1000000000000000000000000000000000000002",
          "topics": [
            "0xe7aa66356adbd5e839ef210626f6d8f6f72109c17fadf4c4f9ca82b315ae79b4"
          ],
          "data": "0x0000000000000000000000006892bdbbb14e1c9bd46bf31e7bac94d038fc82a6000000000000000000000000000000000000000000000000000000000000422d",
          "blockHash": "0xbf76891efe19b9755ea66dafa0f9c33b90e0906eea370151e68272ffb43642ef",
          "blockNumber": "0x17e9561",
          "transactionHash": "0x0e5d5fa46a5aaf97cab32387a26fa9c8d76cef8d00116baca5ace78784f7eead",
          "transactionIndex": "0x0",
          "logIndex": "0x5",
          "removed": false
        },
        {
          "address": "0x1000000000000000000000000000000000000002",
          "topics": [
            "0xe7aa66356adbd5e839ef210626f6d8f6f72109c17fadf4c4f9ca82b315ae79b4"
          ],
          "data": "0x000000000000000000000000bd33bdff04c357f7fc019e72d0504c24cf4aa0100000000000000000000000000000000000000000000000000000000000008f11",
          "blockHash": "0xbf76891efe19b9755ea66dafa0f9c33b90e0906eea370151e68272ffb43642ef",
          "blockNumber": "0x17e9561",
          "transactionHash": "0x0e5d5fa46a5aaf97cab32387a26fa9c8d76cef8d00116baca5ace78784f7eead",
          "transactionIndex": "0x0",
          "logIndex": "0x6",
          "removed": false
        },
        {
          "address": "0x1000000000000000000000000000000000000002",
          "topics": [
            "0xe7aa66356adbd5e839ef210626f6d8f6f72109c17fadf4c4f9ca82b315ae79b4"
          ],
          "data": "0x000000000000000000000000a90db6d10f856799b10ef2a77ebcbf460ac71e520000000000000000000000000000000000000000000000000000000000004bfa",
          "blockHash": "0xbf76891efe19b9755ea66dafa0f9c33b90e0906eea370151e68272ffb43642ef",
          "blockNumber": "0x17e9561",
          "transactionHash": "0x0e5d5fa46a5aaf97cab32387a26fa9c8d76cef8d00116baca5ace78784f7eead",
          "transactionIndex": "0x0",
          "logIndex": "0x7",
          "removed": false
        },
        {
          "address": "0x1000000000000000000000000000000000000002",
          "topics": [
            "0xe7aa66356adbd5e839ef210626f6d8f6f72109c17fadf4c4f9ca82b315ae79b4"
          ],
          "data": "0x0000000000000000000000000b162ca3acf3482d3357972e12d794434085d8390000000000000000000000000000000000000000000000000000000000012d53",
          "blockHash": "0xbf76891efe19b9755ea66dafa0f9c33b90e0906eea370151e68272ffb43642ef",
          "blockNumber": "0x17e9561",
          "transactionHash": "0x0e5d5fa46a5aaf97cab32387a26fa9c8d76cef8d00116baca5ace78784f7eead",
          "transactionIndex": "0x0",
          "logIndex": "0x8",
          "removed": false
        }
      ],
      "logsBloom": "0x00020010000000000000000000000000002000000000001000200000000000000000000000000000400002000000000000000000000000000000000000000000000000000000000000400000002080000000000000040000000080000082000000000000000000000000000000000000000000000000000001020000400000000000000000000800000800000000000000000000000080000000000400000000080000000010000000000000000000000000000000000000000000000000000000000040000000020000000000000020000000000004000000000000001000000000000200000000020000000000008002000000000000000020000000000000",
      "type": "0x2",
      "transactionHash": "0x0e5d5fa46a5aaf97cab32387a26fa9c8d76cef8d00116baca5ace78784f7eead",
      "transactionIndex": "0x0",
      "blockHash": "0xbf76891efe19b9755ea66dafa0f9c33b90e0906eea370151e68272ffb43642ef",
      "blockNumber": "0x17e9561",
      "gasUsed": "0x415a2",
      "effectiveGasPrice": "0xe8d4a5102",
      "from": "0x05bb785675f2c43794cd0cf69fae4ff55609b783",
      "to": "0xdbfd526e99e458ea640b524cbc671650be29afd1",
      "contractAddress": null
    }
  ],
  "libraries": [],
  "pending": [],
  "returns": {},
  "timestamp": 1765843325798,
  "chain": 114,
  "commit": "a89de2d"
}