{
  "transactions": [
    {
      "hash": "0xf11d3efd1721f2ef853d8afb9adeb64d9784ff654991e82f6b294fe7db35945c",
      "transactionType": "CALL",
      "contractName": null,
      "contractAddress": "0x58ad50724a983240d69072de9c554ff1e12fedd7",
      "function": "approve(address,uint256)",
      "arguments": [
        "0xe62c4c776A79cBF66426519f282121684Be4fCdE",
        "115792089237316195423570985008687907853269984665640564039457584007913129639935"
      ],
      "transaction": {
        "from": "0x05bb785675f2c43794cd0cf69fae4ff55609b783",
        "to": "0x58ad50724a983240d69072de9c554ff1e12fedd7",
        "gas": "0x9fbc",
        "value": "0x0",
        "input": "0x095ea7b3000000000000000000000000e62c4c776a79cbf66426519f282121684be4fcdeffffffffffffffffffffffffffffffffffffffffffffffffffffffffffffffff",
        "nonce": "0x67",
        "chainId": "0x72"
      },
      "additionalContracts": [],
      "isFixedGasLimit": false
    },
    {
      "hash": "0x6d9e94a79d140cb22e1600033f758a9cc156b9f5bf9320a167e87a1bf8ccf88b",
      "transactionType": "CALL",
      "contractName": null,
      "contractAddress": "0x4fcbcfab3109809b0bcccb42c82cc4e281e71c12",
      "function": "approve(address,uint256)",
      "arguments": [
        "0xe62c4c776A79cBF66426519f282121684Be4fCdE",
        "115792089237316195423570985008687907853269984665640564039457584007913129639935"
      ],
      "transaction": {
        "from": "0x05bb785675f2c43794cd0cf69fae4ff55609b783",
        "to": "0x4fcbcfab3109809b0bcccb42c82cc4e281e71c12",
        "gas": "0x9fbc",
        "value": "0x0",
        "input": "0x095ea7b3000000000000000000000000e62c4c776a79cbf66426519f282121684be4fcdeffffffffffffffffffffffffffffffffffffffffffffffffffffffffffffffff",
        "nonce": "0x68",
        "chainId": "0x72"
      },
      "additionalContracts": [],
      "isFixedGasLimit": false
    },
    {
      "hash": "0x1c8b3d476fd673819c9a73cce41e1e8fca809658752088840fdb5c7c71d4b001",
      "transactionType": "CALL",
      "contractName": null,
      "contractAddress": "0xfb864e898bbc04d1df1a1bca381bbaefd511fb2a",
      "function": "approve(address,uint256)",
      "arguments": [
        "0xe62c4c776A79cBF66426519f282121684Be4fCdE",
        "115792089237316195423570985008687907853269984665640564039457584007913129639935"
      ],
      "transaction": {
        "from": "0x05bb785675f2c43794cd0cf69fae4ff55609b783",
        "to": "0xfb864e898bbc04d1df1a1bca381bbaefd511fb2a",
        "gas": "0x9fbc",
        "value": "0x0",
        "input": "0x095ea7b3000000000000000000000000e62c4c776a79cbf66426519f282121684be4fcdeffffffffffffffffffffffffffffffffffffffffffffffffffffffffffffffff",
        "nonce": "0x69",
        "chainId": "0x72"
      },
      "additionalContracts": [],
      "isFixedGasLimit": false
    },
    {
      "hash": "0x3dbc1d7c36953b71cea59898d1311f3584fb51db76584c8e614f0bd6d7bd0f2a",
      "transactionType": "CALL",
      "contractName": null,
      "contractAddress": "0xf2f8bdfd3a216f684756768160cb3bfdf26b03f0",
      "function": "approve(address,uint256)",
      "arguments": [
        "0xe62c4c776A79cBF66426519f282121684Be4fCdE",
        "115792089237316195423570985008687907853269984665640564039457584007913129639935"
      ],
      "transaction": {
        "from": "0x05bb785675f2c43794cd0cf69fae4ff55609b783",
        "to": "0xf2f8bdfd3a216f684756768160cb3bfdf26b03f0",
        "gas": "0x9fbc",
        "value": "0x0",
        "input": "0x095ea7b3000000000000000000000000e62c4c776a79cbf66426519f282121684be4fcdeffffffffffffffffffffffffffffffffffffffffffffffffffffffffffffffff",
        "nonce": "0x6a",
        "chainId": "0x72"
      },
      "additionalContracts": [],
      "isFixedGasLimit": false
    },
    {
      "hash": "0xd659c5c8132b539d535ce2267dee35fa0a40165c9b874228e7933e5de0cf8b25",
      "transactionType": "CALL",
      "contractName": null,
      "contractAddress": "0xe62c4c776a79cbf66426519f282121684be4fcde",
      "function": "addLiquidity((address,address,uint256,uint256,uint256,uint256,uint256,uint256,uint256,int256[],uint256[],uint256[],address,address,uint256))",
      "arguments": [
        "(0x58AD50724a983240D69072DE9c554ff1E12fedd7, 0x4Fcbcfab3109809b0BCcCB42c82cC4E281e71C12, 15, 500000000000000000, 100000000, 0, 0, 8388608, 10, [0], [1000000000000000000], [1000000000000000000], 0x05BB785675F2C43794Cd0cf69FaE4fF55609B783, 0x05BB785675F2C43794Cd0cf69FaE4fF55609B783, 1765847380)"
      ],
      "transaction": {
        "from": "0x05bb785675f2c43794cd0cf69fae4ff55609b783",
        "to": "0xe62c4c776a79cbf66426519f282121684be4fcde",
        "gas": "0x2eb53",
        "value": "0x0",
        "input": "0xa3c7271a000000000000000000000000000000000000000000000000000000000000002000000000000000000000000058ad50724a983240d69072de9c554ff1e12fedd70000000000000000000000004fcbcfab3109809b0bcccb42c82cc4e281e71c12000000000000000000000000000000000000000000000000000000000000000f00000000000000000000000000000000000000000000000006f05b59d3b200000000000000000000000000000000000000000000000000000000000005f5e100000000000000000000000000000000000000000000000000000000000000000000000000000000000000000000000000000000000000000000000000000000000000000000000000000000000000000000000000000000000000000000800000000000000000000000000000000000000000000000000000000000000000000a00000000000000000000000000000000000000000000000000000000000001e00000000000000000000000000000000000000000000000000000000000000220000000000000000000000000000000000000000000000000000000000000026000000000000000000000000005bb785675f2c43794cd0cf69fae4ff55609b78300000000000000000000000005bb785675f2c43794cd0cf69fae4ff55609b783000000000000000000000000000000000000000000000000000000006940b1540000000000000000000000000000000000000000000000000000000000000001000000000000000000000000000000000000000000000000000000000000000000000000000000000000000000000000000000000000000000000000000000010000000000000000000000000000000000000000000000000de0b6b3a764000000000000000000000000000000000000000000000000000000000000000000010000000000000000000000000000000000000000000000000de0b6b3a7640000",
        "nonce": "0x6b",
        "chainId": "0x72"
      },
      "additionalContracts": [],
      "isFixedGasLimit": false
    },
    {
      "hash": "0xdf692ea6da9f82ed479d6f5e54b80a22d59256976cc6e470e10444d5795dc166",
      "transactionType": "CALL",
      "contractName": null,
      "contractAddress": "0xe62c4c776a79cbf66426519f282121684be4fcde",
      "function": "addLiquidity((address,address,uint256,uint256,uint256,uint256,uint256,uint256,uint256,int256[],uint256[],uint256[],address,address,uint256))",
      "arguments": [
        "(0xf2F8BDfd3A216f684756768160cb3BFdF26b03f0, 0x58AD50724a983240D69072DE9c554ff1E12fedd7, 15, 100000000000000000000, 100000000000000000, 0, 0, 8388608, 10, [0], [1000000000000000000], [1000000000000000000], 0x05BB785675F2C43794Cd0cf69FaE4fF55609B783, 0x05BB785675F2C43794Cd0cf69FaE4fF55609B783, 1765847380)"
      ],
      "transaction": {
        "from": "0x05bb785675f2c43794cd0cf69fae4ff55609b783",
        "to": "0xe62c4c776a79cbf66426519f282121684be4fcde",
        "gas": "0x64b1f",
        "value": "0x0",
        "input": "0xa3c7271a0000000000000000000000000000000000000000000000000000000000000020000000000000000000000000f2f8bdfd3a216f684756768160cb3bfdf26b03f000000000000000000000000058ad50724a983240d69072de9c554ff1e12fedd7000000000000000000000000000000000000000000000000000000000000000f0000000000000000000000000000000000000000000000056bc75e2d63100000000000000000000000000000000000000000000000000000016345785d8a0000000000000000000000000000000000000000000000000000000000000000000000000000000000000000000000000000000000000000000000000000000000000000000000000000000000000000000000000000000000000000000000800000000000000000000000000000000000000000000000000000000000000000000a00000000000000000000000000000000000000000000000000000000000001e00000000000000000000000000000000000000000000000000000000000000220000000000000000000000000000000000000000000000000000000000000026000000000000000000000000005bb785675f2c43794cd0cf69fae4ff55609b78300000000000000000000000005bb785675f2c43794cd0cf69fae4ff55609b783000000000000000000000000000000000000000000000000000000006940b1540000000000000000000000000000000000000000000000000000000000000001000000000000000000000000000000000000000000000000000000000000000000000000000000000000000000000000000000000000000000000000000000010000000000000000000000000000000000000000000000000de0b6b3a764000000000000000000000000000000000000000000000000000000000000000000010000000000000000000000000000000000000000000000000de0b6b3a7640000",
        "nonce": "0x6c",
        "chainId": "0x72"
      },
      "additionalContracts": [],
      "isFixedGasLimit": false
    },
    {
      "hash": "0xaf347b519023a0cad42ffd2c027d7a99a20d43dcd3a7c7afbc7a33040ab66e47",
      "transactionType": "CALL",
      "contractName": null,
      "contractAddress": "0xe62c4c776a79cbf66426519f282121684be4fcde",
      "function": "addLiquidity((address,address,uint256,uint256,uint256,uint256,uint256,uint256,uint256,int256[],uint256[],uint256[],address,address,uint256))",
      "arguments": [
        "(0x4Fcbcfab3109809b0BCcCB42c82cC4E281e71C12, 0xfB864E898bBc04D1df1a1BCa381BbaefD511fB2A, 15, 1000000000, 1000000000, 0, 0, 8388608, 10, [0], [1000000000000000000], [1000000000000000000], 0x05BB785675F2C43794Cd0cf69FaE4fF55609B783, 0x05BB785675F2C43794Cd0cf69FaE4fF55609B783, 1765847380)"
      ],
      "transaction": {
        "from": "0x05bb785675f2c43794cd0cf69fae4ff55609b783",
        "to": "0xe62c4c776a79cbf66426519f282121684be4fcde",
        "gas": "0x6a9b2",
        "value": "0x0",
        "input": "0xa3c7271a00000000000000000000000000000000000000000000000000000000000000200000000000000000000000004fcbcfab3109809b0bcccb42c82cc4e281e71c12000000000000000000000000fb864e898bbc04d1df1a1bca381bbaefd511fb2a000000000000000000000000000000000000000000000000000000000000000f000000000000000000000000000000000000000000000000000000003b9aca00000000000000000000000000000000000000000000000000000000003b9aca00000000000000000000000000000000000000000000000000000000000000000000000000000000000000000000000000000000000000000000000000000000000000000000000000000000000000000000000000000000000000000000800000000000000000000000000000000000000000000000000000000000000000000a00000000000000000000000000000000000000000000000000000000000001e00000000000000000000000000000000000000000000000000000000000000220000000000000000000000000000000000000000000000000000000000000026000000000000000000000000005bb785675f2c43794cd0cf69fae4ff55609b78300000000000000000000000005bb785675f2c43794cd0cf69fae4ff55609b783000000000000000000000000000000000000000000000000000000006940b1540000000000000000000000000000000000000000000000000000000000000001000000000000000000000000000000000000000000000000000000000000000000000000000000000000000000000000000000000000000000000000000000010000000000000000000000000000000000000000000000000de0b6b3a764000000000000000000000000000000000000000000000000000000000000000000010000000000000000000000000000000000000000000000000de0b6b3a7640000",
        "nonce": "0x6d",
        "chainId": "0x72"
      },
      "additionalContracts": [],
      "isFixedGasLimit": false
    }
  ],
  "receipts": [
    {
      "status": "0x1",
      "cumulativeGasUsed": "0x3b069",
      "logs": [
        {
          "address": "0x58ad50724a983240d69072de9c554ff1e12fedd7",
          "topics": [
            "0x8c5be1e5ebec7d5bd14f71427d1e84f3dd0314c0f7b2291e5b200ac8c7c3b925",
            "0x00000000000000000000000005bb785675f2c43794cd0cf69fae4ff55609b783",
            "0x000000000000000000000000e62c4c776a79cbf66426519f282121684be4fcde"
          ],
          "data": "0xffffffffffffffffffffffffffffffffffffffffffffffffffffffffffffffff",
          "blockHash": "0xe7391ac9ca8c86c6ebf7731fe9429c101fc4b9066bec074839fd26879261cb8c",
          "blockNumber": "0x17e961a",
          "transactionHash": "0xd659c5c8132b539d535ce2267dee35fa0a40165c9b874228e7933e5de0cf8b25",
          "transactionIndex": "0x1",
          "logIndex": "0x7",
          "removed": false
        }
      ],
      "logsBloom": "0x00000000000000000000000100000000000000000000000000000000000000000000000000000000000200000000000000000000000000000000000000200000000000000000000000000000000000000000000100000000000000000000000000000000000000000000000000100000000000000000200000000000000000000000000000000000000000000000000000000000000000000000000000000000020000000000000000000000000000000000000000000000000000000000000000000000000000000000000000000000000000000020000000000080000000000010200000000000008000000000000000000000000000000000000000000000",
      "type": "0x2",
      "transactionHash": "0xd659c5c8132b539d535ce2267dee35fa0a40165c9b874228e7933e5de0cf8b25",
      "transactionIndex": "0x1",
      "blockHash": "0xe7391ac9ca8c86c6ebf7731fe9429c101fc4b9066bec074839fd26879261cb8c",
      "blockNumber": "0x17e961a",
      "gasUsed": "0x73a6",
      "effectiveGasPrice": "0xe8d4a5102",
      "from": "0x05bb785675f2c43794cd0cf69fae4ff55609b783",
      "to": "0x58ad50724a983240d69072de9c554ff1e12fedd7",
      "contractAddress": null
    },
    {
      "status": "0x1",
      "cumulativeGasUsed": "0x4240f",
      "logs": [
        {
          "address": "0x4fcbcfab3109809b0bcccb42c82cc4e281e71c12",
          "topics": [
            "0x8c5be1e5ebec7d5bd14f71427d1e84f3dd0314c0f7b2291e5b200ac8c7c3b925",
            "0x00000000000000000000000005bb785675f2c43794cd0cf69fae4ff55609b783",
            "0x000000000000000000000000e62c4c776a79cbf66426519f282121684be4fcde"
          ],
          "data": "0xffffffffffffffffffffffffffffffffffffffffffffffffffffffffffffffff",
          "blockHash": "0xe7391ac9ca8c86c6ebf7731fe9429c101fc4b9066bec074839fd26879261cb8c",
          "blockNumber": "0x17e961a",
          "transactionHash": "0x6d9e94a79d140cb22e1600033f758a9cc156b9f5bf9320a167e87a1bf8ccf88b",
          "transactionIndex": "0x2",
          "logIndex": "0x8",
          "removed": false
        }
      ],
      "logsBloom": "0x00000000000000000000000100000000000000000000000000000000000000000000000000000100800200000000000000000000000000000000000000200000000000000000000000000000000000000000000100000000000000000000000000000000000000000000000000100000000000000000000000000000000000000000000000000000000000000000000000000000000000000000000000000000020000000000000000000000000000000000000000000000000000000000000000000000000000000001000000000000000000000020000000000080000000000010000000000000000000000000000000000000000000000000000000000000",
      "type": "0x2",
      "transactionHash": "0x6d9e94a79d140cb22e1600033f758a9cc156b9f5bf9320a167e87a1bf8ccf88b",
      "transactionIndex": "0x2",
      "blockHash": "0xe7391ac9ca8c86c6ebf7731fe9429c101fc4b9066bec074839fd26879261cb8c",
      "blockNumber": "0x17e961a",
      "gasUsed": "0x73a6",
      "effectiveGasPrice": "0xe8d4a5102",
      "from": "0x05bb785675f2c43794cd0cf69fae4ff55609b783",
      "to": "0x4fcbcfab3109809b0bcccb42c82cc4e281e71c12",
      "contractAddress": null
    },
    {
      "status": "0x1",
      "cumulativeGasUsed": "0x497b5",
      "logs": [
        {
          "address": "0xfb864e898bbc04d1df1a1bca381bbaefd511fb2a",
          "topics": [
            "0x8c5be1e5ebec7d5bd14f71427d1e84f3dd0314c0f7b2291e5b200ac8c7c3b925",
            "0x00000000000000000000000005bb785675f2c43794cd0cf69fae4ff55609b783",
            "0x000000000000000000000000e62c4c776a79cbf66426519f282121684be4fcde"
          ],
          "data": "0xffffffffffffffffffffffffffffffffffffffffffffffffffffffffffffffff",
          "blockHash": "0xe7391ac9ca8c86c6ebf7731fe9429c101fc4b9066bec074839fd26879261cb8c",
          "blockNumber": "0x17e961a",
          "transactionHash": "0x1c8b3d476fd673819c9a73cce41e1e8fca809658752088840fdb5c7c71d4b001",
          "transactionIndex": "0x3",
          "logIndex": "0x9",
          "removed": false
        }
      ],
      "logsBloom": "0x00000000000000000000000100000000000000000000000000004000000000000000000000000000000200000000000000000000000000000000000000200000000000000000000000000000000000000000000100000000000000000000000000000000000000000000000000100000000000000000000000000000000000000000000000000000000000000000000000000000000000000000000000000000020000000000000000000000000000000000000000000000008000000000000000000000000000000000000000000000000000000020000000400080000000000010000000000000000000000000000000000000000000000000000000000000",
      "type": "0x2",
      "transactionHash": "0x1c8b3d476fd673819c9a73cce41e1e8fca809658752088840fdb5c7c71d4b001",
      "transactionIndex": "0x3",
      "blockHash": "0xe7391ac9ca8c86c6ebf7731fe9429c101fc4b9066bec074839fd26879261cb8c",
      "blockNumber": "0x17e961a",
      "gasUsed": "0x73a6",
      "effectiveGasPrice": "0xe8d4a5102",
      "from": "0x05bb785675f2c43794cd0cf69fae4ff55609b783",
      "to": "0xfb864e898bbc04d1df1a1bca381bbaefd511fb2a",
      "contractAddress": null
    },
    {
      "status": "0x1",
      "cumulativeGasUsed": "0x50b5b",
      "logs": [
        {
          "address": "0xf2f8bdfd3a216f684756768160cb3bfdf26b03f0",
          "topics": [
            "0x8c5be1e5ebec7d5bd14f71427d1e84f3dd0314c0f7b2291e5b200ac8c7c3b925",
            "0x00000000000000000000000005bb785675f2c43794cd0cf69fae4ff55609b783",
            "0x000000000000000000000000e62c4c776a79cbf66426519f282121684be4fcde"
          ],
          "data": "0xffffffffffffffffffffffffffffffffffffffffffffffffffffffffffffffff",
          "blockHash": "0xe7391ac9ca8c86c6ebf7731fe9429c101fc4b9066bec074839fd26879261cb8c",
          "blockNumber": "0x17e961a",
          "transactionHash": "0xf11d3efd1721f2ef853d8afb9adeb64d9784ff654991e82f6b294fe7db35945c",
          "transactionIndex": "0x4",
          "logIndex": "0xa",
          "removed": false
        }
      ],
      "logsBloom": "0x00000000000000000000000100000000000000000000008000000000000000000000000000000000000200008000000000000000000000000000010000200000000000000000000000000000000000000000000100000000000000000000000000000000000000000000000000100000000000000000000000000000000000000000000000000000000000000000000000000000000000000000000000000000020000000000000000000000000000000000000000000000000000000000000000000000000000000000000000000000000000000020000000000080000000000010000000000000000000000000000000000000000000000000000000000000",
      "type": "0x2",
      "transactionHash": "0xf11d3efd1721f2ef853d8afb9adeb64d9784ff654991e82f6b294fe7db35945c",
      "transactionIndex": "0x4",
      "blockHash": "0xe7391ac9ca8c86c6ebf7731fe9429c101fc4b9066bec074839fd26879261cb8c",
      "blockNumber": "0x17e961a",
      "gasUsed": "0x73a6",
      "effectiveGasPrice": "0xe8d4a5102",
      "from": "0x05bb785675f2c43794cd0cf69fae4ff55609b783",
      "to": "0xf2f8bdfd3a216f684756768160cb3bfdf26b03f0",
      "contractAddress": null
    },
    {
      "status": "0x1",
      "cumulativeGasUsed": "0x73359",
      "logs": [
        {
          "address": "0x58ad50724a983240d69072de9c554ff1e12fedd7",
          "topics": [
            "0xddf252ad1be2c89b69c2b068fc378daa952ba7f163c4a11628f55a4df523b3ef",
            "0x00000000000000000000000005bb785675f2c43794cd0cf69fae4ff55609b783",
            "0x00000000000000000000000057ab117167833d1498badd8952d2faa4a25db572"
          ],
          "data": "0x00000000000000000000000000000000000000000000000006f05b59d3b20000",
          "blockHash": "0xe7391ac9ca8c86c6ebf7731fe9429c101fc4b9066bec074839fd26879261cb8c",
          "blockNumber": "0x17e961a",
          "transactionHash": "0x3dbc1d7c36953b71cea59898d1311f3584fb51db76584c8e614f0bd6d7bd0f2a",
          "transactionIndex": "0x5",
          "logIndex": "0xb",
          "removed": false
        },
        {
          "address": "0x4fcbcfab3109809b0bcccb42c82cc4e281e71c12",
          "topics": [
            "0xddf252ad1be2c89b69c2b068fc378daa952ba7f163c4a11628f55a4df523b3ef",
            "0x00000000000000000000000005bb785675f2c43794cd0cf69fae4ff55609b783",
            "0x00000000000000000000000057ab117167833d1498badd8952d2faa4a25db572"
          ],
          "data": "0x0000000000000000000000000000000000000000000000000000000005f5e100",
          "blockHash": "0xe7391ac9ca8c86c6ebf7731fe9429c101fc4b9066bec074839fd26879261cb8c",
          "blockNumber": "0x17e961a",
          "transactionHash": "0x3dbc1d7c36953b71cea59898d1311f3584fb51db76584c8e614f0bd6d7bd0f2a",
          "transactionIndex": "0x5",
          "logIndex": "0xc",
          "removed": false
        },
        {
          "address": "0x57ab117167833d1498badd8952d2faa4a25db572",
          "topics": [
            "0x3f0b46725027bb418b2005f4683538eccdbcdf1de2b8649a29dbd9c507d16ff4",
            "0x000000000000000000000000e62c4c776a79cbf66426519f282121684be4fcde"
          ],
          "data": "0x000000000000000000000000000000000000000000000000000000000080000000000000000000000000000000012568000000000000000000000000000000000000000000000000000000000000000000000000000000000000000000000000",
          "blockHash": "0xe7391ac9ca8c86c6ebf7731fe9429c101fc4b9066bec074839fd26879261cb8c",
          "blockNumber": "0x17e961a",
          "transactionHash": "0x3dbc1d7c36953b71cea59898d1311f3584fb51db76584c8e614f0bd6d7bd0f2a",
          "transactionIndex": "0x5",
          "logIndex": "0xd",
          "removed": false
        },
        {
          "address": "0x57ab117167833d1498badd8952d2faa4a25db572",
          "topics": [
            "0x4a39dc06d4c0dbc64b70af90fd698a233a518aa5d07e595d983b8c0526c8f7fb",
            "0x000000000000000000000000e62c4c776a79cbf66426519f282121684be4fcde",
            "0x0000000000000000000000000000000000000000000000000000000000000000",
            "0x00000000000000000000000005bb785675f2c43794cd0cf69fae4ff55609b783"
          ],
          "data": "0x0000000000000000000000000000000000000000000000000000000000000040000000000000000000000000000000000000000000000000000000000000008000000000000000000000000000000000000000000000000000000000000000010000000000000000000000000000000000000000000000000000000000800000000000000000000000000000000000000000000000000000000000000000000100000000000000000000000000000000000000001dcd6500165f04250415d3ca",
          "blockHash": "0xe7391ac9ca8c86c6ebf7731fe9429c101fc4b9066bec074839fd26879261cb8c",
          "blockNumber": "0x17e961a",
          "transactionHash": "0x3dbc1d7c36953b71cea59898d1311f3584fb51db76584c8e614f0bd6d7bd0f2a",
          "transactionIndex": "0x5",
          "logIndex": "0xe",
          "removed": false
        },
        {
          "address": "0x57ab117167833d1498badd8952d2faa4a25db572",
          "topics": [
            "0x87f1f9dcf5e8089a3e00811b6a008d8f30293a3da878cb1fe8c90ca376402f8a",
            "0x000000000000000000000000e62c4c776a79cbf66426519f282121684be4fcde",
            "0x00000000000000000000000005bb785675f2c43794cd0cf69fae4ff55609b783"
          ],
          "data": "0x0000000000000000000000000000000000000000000000000000000000000040000000000000000000000000000000000000000000000000000000000000008000000000000000000000000000000000000000000000000000000000000000010000000000000000000000000000000000000000000000000000000000800000000000000000000000000000000000000000000000000000000000000000000100000000000000000000000005f5e100000000000000000006f05b59d3b20000",
          "blockHash": "0xe7391ac9ca8c86c6ebf7731fe9429c101fc4b9066bec074839fd26879261cb8c",
          "blockNumber": "0x17e961a",
          "transactionHash": "0x3dbc1d7c36953b71cea59898d1311f3584fb51db76584c8e614f0bd6d7bd0f2a",
          "transactionIndex": "0x5",
          "logIndex": "0xf",
          "removed": false
        }
      ],
      "logsBloom": "0x00000000000000000000000100000000000000000000000000000000000000000000000000000104800200000000000000000210000000002000000000001000000000000000000000000008000080000000000100000000000000000000000000000000021000000000000000100800000000000800200000000010000000000000000000000000000000000000000000000000000000000000000000000000000000004000000000400000000000000000400000000000000000000000000000000002000000000001000000000000000400000020000000000080000020000000200000000000028000000000008000000000000000000000000002000000",
      "type": "0x2",
      "transactionHash": "0x3dbc1d7c36953b71cea59898d1311f3584fb51db76584c8e614f0bd6d7bd0f2a",
      "transactionIndex": "0x5",
      "blockHash": "0xe7391ac9ca8c86c6ebf7731fe9429c101fc4b9066bec074839fd26879261cb8c",
      "blockNumber": "0x17e961a",
      "gasUsed": "0x227fe",
      "effectiveGasPrice": "0xe8d4a5102",
      "from": "0x05bb785675f2c43794cd0cf69fae4ff55609b783",
      "to": "0xe62c4c776a79cbf66426519f282121684be4fcde",
      "contractAddress": null
    },
    {
      "status": "0x1",
      "cumulativeGasUsed": "0xbccb6",
      "logs": [
        {
          "address": "0xf2f8bdfd3a216f684756768160cb3bfdf26b03f0",
          "topics": [
            "0xddf252ad1be2c89b69c2b068fc378daa952ba7f163c4a11628f55a4df523b3ef",
            "0x00000000000000000000000005bb785675f2c43794cd0cf69fae4ff55609b783",
            "0x000000000000000000000000014c31e5cd8d13e4bb61a2405d9298d3cceab340"
          ],
          "data": "0x0000000000000000000000000000000000000000000000056bc75e2d63100000",
          "blockHash": "0xe7391ac9ca8c86c6ebf7731fe9429c101fc4b9066bec074839fd26879261cb8c",
          "blockNumber": "0x17e961a",
          "transactionHash": "0xaf347b519023a0cad42ffd2c027d7a99a20d43dcd3a7c7afbc7a33040ab66e47",
          "transactionIndex": "0x6",
          "logIndex": "0x10",
          "removed": false
        },
        {
          "address": "0x58ad50724a983240d69072de9c554ff1e12fedd7",
          "topics": [
            "0xddf252ad1be2c89b69c2b068fc378daa952ba7f163c4a11628f55a4df523b3ef",
            "0x00000000000000000000000005bb785675f2c43794cd0cf69fae4ff55609b783",
            "0x000000000000000000000000014c31e5cd8d13e4bb61a2405d9298d3cceab340"
          ],
          "data": "0x000000000000000000000000000000000000000000000000016345785d8a0000",
          "blockHash": "0xe7391ac9ca8c86c6ebf7731fe9429c101fc4b9066bec074839fd26879261cb8c",
          "blockNumber": "0x17e961a",
          "transactionHash": "0xaf347b519023a0cad42ffd2c027d7a99a20d43dcd3a7c7afbc7a33040ab66e47",
          "transactionIndex": "0x6",
          "logIndex": "0x11",
          "removed": false
        },
        {
          "address": "0x014c31e5cd8d13e4bb61a2405d9298d3cceab340",
          "topics": [
            "0x4a39dc06d4c0dbc64b70af90fd698a233a518aa5d07e595d983b8c0526c8f7fb",
            "0x000000000000000000000000e62c4c776a79cbf66426519f282121684be4fcde",
            "0x0000000000000000000000000000000000000000000000000000000000000000",
            "0x00000000000000000000000005bb785675f2c43794cd0cf69fae4ff55609b783"
          ],
          "data": "0x00000000000000000000000000000000000000000000000000000000000000400000000000000000000000000000000000000000000000000000000000000080000000000000000000000000000000000000000000000000000000000000000100000000000000000000000000000000000000000000000000000000008000000000000000000000000000000000000000000000000000000000000000000001000000000000000000000000000000000000000254582a5e9fe66afbeccd4d49",
          "blockHash": "0xe7391ac9ca8c86c6ebf7731fe9429c101fc4b9066bec074839fd26879261cb8c",
          "blockNumber": "0x17e961a",
          "transactionHash": "0xaf347b519023a0cad42ffd2c027d7a99a20d43dcd3a7c7afbc7a33040ab66e47",
          "transactionIndex": "0x6",
          "logIndex": "0x12",
          "removed": false
        },
        {
          "address": "0x014c31e5cd8d13e4bb61a2405d9298d3cceab340",
          "topics": [
            "0x87f1f9dcf5e8089a3e00811b6a008d8f30293a3da878cb1fe8c90ca376402f8a",
            "0x000000000000000000000000e62c4c776a79cbf66426519f282121684be4fcde",
            "0x00000000000000000000000005bb785675f2c43794cd0cf69fae4ff55609b783"
          ],
          "data": "0x000000000000000000000000000000000000000000000000000000000000004000000000000000000000000000000000000000000000000000000000000000800000000000000000000000000000000000000000000000000000000000000001000000000000000000000000000000000000000000000000000000000080000000000000000000000000000000000000000000000000000000000000000000010000000000000000016345785d8a000000000000000000056bc75e2d63100000",
          "blockHash": "0xe7391ac9ca8c86c6ebf7731fe9429c101fc4b9066bec074839fd26879261cb8c",
          "blockNumber": "0x17e961a",
          "transactionHash": "0xaf347b519023a0cad42ffd2c027d7a99a20d43dcd3a7c7afbc7a33040ab66e47",
          "transactionIndex": "0x6",
          "logIndex": "0x13",
          "removed": false
        }
      ],
      "logsBloom": "0x00000000000000000000000100000000000000000000008000000000000000000000000000000004400200008000000000000010000000002000010000000000000000000000000000000008000000000000000100000000000000000000000000000000020008000000000000100800000200000800200000000010000000000000000000000000000000000000000000040000000000000000000000100000000000000000000000000000000000000000000000000000000000000000000000000002000000000000000000020000000400000020000000000080000020000000200000000000008000000000000000000000000000000000000002000000",
      "type": "0x2",
      "transactionHash": "0xaf347b519023a0cad42ffd2c027d7a99a20d43dcd3a7c7afbc7a33040ab66e47",
      "transactionIndex": "0x6",
      "blockHash": "0xe7391ac9ca8c86c6ebf7731fe9429c101fc4b9066bec074839fd26879261cb8c",
      "blockNumber": "0x17e961a",
      "gasUsed": "0x4995d",
      "effectiveGasPrice": "0xe8d4a5102",
      "from": "0x05bb785675f2c43794cd0cf69fae4ff55609b783",
      "to": "0xe62c4c776a79cbf66426519f282121684be4fcde",
      "contractAddress": null
    },
    {
      "status": "0x1",
      "cumulativeGasUsed": "0x1065f0",
      "logs": [
        {
          "address": "0x4fcbcfab3109809b0bcccb42c82cc4e281e71c12",
          "topics": [
            "0xddf252ad1be2c89b69c2b068fc378daa952ba7f163c4a11628f55a4df523b3ef",
            "0x00000000000000000000000005bb785675f2c43794cd0cf69fae4ff55609b783",
            "0x00000000000000000000000085944bef3b1c150060a99a2d1286a5b912ed0fde"
          ],
          "data": "0x000000000000000000000000000000000000000000000000000000003b9aca00",
          "blockHash": "0xe7391ac9ca8c86c6ebf7731fe9429c101fc4b9066bec074839fd26879261cb8c",
          "blockNumber": "0x17e961a",
          "transactionHash": "0xdf692ea6da9f82ed479d6f5e54b80a22d59256976cc6e470e10444d5795dc166",
          "transactionIndex": "0x7",
          "logIndex": "0x14",
          "removed": false
        },
        {
          "address": "0xfb864e898bbc04d1df1a1bca381bbaefd511fb2a",
          "topics": [
            "0xddf252ad1be2c89b69c2b068fc378daa952ba7f163c4a11628f55a4df523b3ef",
            "0x00000000000000000000000005bb785675f2c43794cd0cf69fae4ff55609b783",
            "0x00000000000000000000000085944bef3b1c150060a99a2d1286a5b912ed0fde"
          ],
          "data": "0x000000000000000000000000000000000000000000000000000000003b9aca00",
          "blockHash": "0xe7391ac9ca8c86c6ebf7731fe9429c101fc4b9066bec074839fd26879261cb8c",
          "blockNumber": "0x17e961a",
          "transactionHash": "0xdf692ea6da9f82ed479d6f5e54b80a22d59256976cc6e470e10444d5795dc166",
          "transactionIndex": "0x7",
          "logIndex": "0x15",
          "removed": false
        },
        {
          "address": "0x85944bef3b1c150060a99a2d1286a5b912ed0fde",
          "topics": [
            "0x4a39dc06d4c0dbc64b70af90fd698a233a518aa5d07e595d983b8c0526c8f7fb",
            "0x000000000000000000000000e62c4c776a79cbf66426519f282121684be4fcde",
            "0x0000000000000000000000000000000000000000000000000000000000000000",
            "0x00000000000000000000000005bb785675f2c43794cd0cf69fae4ff55609b783"
          ],
          "data": "0x0000000000000000000000000000000000000000000000000000000000000040000000000000000000000000000000000000000000000000000000000000008000000000000000000000000000000000000000000000000000000000000000010000000000000000000000000000000000000000000000000000000000800000000000000000000000000000000000000000000000000000000000000000000100000000000000000000000000000000000000000000aeb15c0b77f1363c65f0",
          "blockHash": "0xe7391ac9ca8c86c6ebf7731fe9429c101fc4b9066bec074839fd26879261cb8c",
          "blockNumber": "0x17e961a",
          "transactionHash": "0xdf692ea6da9f82ed479d6f5e54b80a22d59256976cc6e470e10444d5795dc166",
          "transactionIndex": "0x7",
          "logIndex": "0x16",
          "removed": false
        },
        {
          "address": "0x85944bef3b1c150060a99a2d1286a5b912ed0fde",
          "topics": [
            "0x87f1f9dcf5e8089a3e00811b6a008d8f30293a3da878cb1fe8c90ca376402f8a",
            "0x000000000000000000000000e62c4c776a79cbf66426519f282121684be4fcde",
            "0x00000000000000000000000005bb785675f2c43794cd0cf69fae4ff55609b783"
          ],
          "data": "0x000000000000000000000000000000000000000000000000000000000000004000000000000000000000000000000000000000000000000000000000000000800000000000000000000000000000000000000000000000000000000000000001000000000000000000000000000000000000000000000000000000000080000000000000000000000000000000000000000000000000000000000000000000010000000000000000000000003b9aca000000000000000000000000003b9aca00",
          "blockHash": "0xe7391ac9ca8c86c6ebf7731fe9429c101fc4b9066bec074839fd26879261cb8c",
          "blockNumber": "0x17e961a",
          "transactionHash": "0xdf692ea6da9f82ed479d6f5e54b80a22d59256976cc6e470e10444d5795dc166",
          "transactionIndex": "0x7",
          "logIndex": "0x17",
          "removed": false
        }
      ],
      "logsBloom": "0x00000000000000000000000100000000000000000000000000004000000000000000000000000104800220000000000000000010000000002000000000000000000000000000000000000008000000000000000100200000000000000000000000000000020000000000000000100800000000000800000000000010000000000001000000000000000000000000000000000200000000000000000000000040000000000000000000000000000000000000000000000000008000000000000000000002000000000001000000000000000400000020000000400080000020000000000000000000000000000000000000000000000000000000000002000001",
      "type": "0x2",
      "transactionHash": "0xdf692ea6da9f82ed479d6f5e54b80a22d59256976cc6e470e10444d5795dc166",
      "transactionIndex": "0x7",
      "blockHash": "0xe7391ac9ca8c86c6ebf7731fe9429c101fc4b9066bec074839fd26879261cb8c",
      "blockNumber": "0x17e961a",
      "gasUsed": "0x4993a",
      "effectiveGasPrice": "0xe8d4a5102",
      "from": "0x05bb785675f2c43794cd0cf69fae4ff55609b783",
      "to": "0xe62c4c776a79cbf66426519f282121684be4fcde",
      "contractAddress": null
    }
  ],
  "libraries": [],
  "pending": [],
  "returns": {},
  "timestamp": 1765843788201,
  "chain": 114,
  "commit": "a89de2d"
}